:020000040800F2
:10000000D006002091010008451600083D160008A2
:100010004116000899040008591600080000000065
:100020000000000000000000000000004D16000865
:100030009D04000800000000491600085116000841
:10004000AB010008AB010008AB010008AB010008E0
:10005000AB010008AB010008AB010008AB010008D0
:10006000AB010008AB010008AB010008AB010008C0
:10007000AB010008AB010008AB010008AB010008B0
:10008000AB010008AB01000889030008AB010008C0
:10009000AB010008AB010008AB010008AB01000890
:1000A000AB010008AB010008AB010008AB01000880
:1000B000AB010008AB010008AB010008AB01000870
:1000C000AB010008AB010008AB010008AB01000860
:1000D000AB010008AB010008AB010008AB01000850
:1000E000AB010008AB010008AB010008AB01000840
:1000F000AB01000800F002F800F03AF80AA090E81E
:10010000000C82448344AAF10107DA4501D100F0D2
:100110002FF8AFF2090EBAE80F0013F0010F18BF65
:10012000FB1A43F0010318476C1600008C16000000
:10013000103A24BF78C878C1FAD8520724BF30C813
:1001400030C144BF04680C607047000000230024E5
:1001500000250026103A28BF78C1FBD8520728BFD7
:1001600030C148BF0B6070471FB51FBD10B510BD33
:1001700000F0D0F81146FFF7F7FF01F06FFA00F03A
:10018000EEF803B4FFF7F2FF03BC00F0F5F800004F
:100190000948804709480047FEE7FEE7FEE7FEE71B
:1001A000FEE7FEE7FEE7FEE7FEE7FEE70448054957
:1001B000054A064B7047000055160008F500000878
:1001C000D0000020D0060020D0020020D002002065
:1001D00053EA020C00F069802DE9F04B4FF0000665
:1001E000002B1FBFB3FA83F503FA05F424FA05F6D2
:1001F0005E4012BF1643B2FA82F502FA05F4C5F169
:1002000020051EBF22FA05FC44EA0C04203556EAFC
:10021000044C4FEA144418BF641C4FF000084FF020
:100220000009904271EB030C39D3002919BFB1FAD0
:1002300081F701FA07F6B0FA80F700FA07F6C7F17E
:1002400020071EBF20FA07FC46EA0C062037B6FB43
:10025000F4FCA7EB0507103F07F01F0BCBF12006BE
:100260002CFA06F60CFA0BFB44BFB3460026202FEF
:10027000A4BF5E464FF0000B5BEA060C08BF4FF0D0
:10028000010B19EB0B0948EB0608ABFB027C06FBE4
:1002900002CC0BFB03CCC01B71EB0C01C1E70B467E
:1002A000024641464846BDE8F08B13B5084318BFE7
:1002B0004FF0FF300146AFF30080BDE81C407047AF
:1002C0004FF0000200B5134694469646203922BFEF
:1002D000A0E80C50A0E80C50B1F12001BFF4F7AF3A
:1002E000090728BFA0E80C5048BF0CC05DF804EB1C
:1002F000890028BF40F8042B08BF704748BF20F88A
:10030000022B11F0804F18BF00F8012B7047704787
:1003100070477047754600F02BF8AE4605006946F9
:10032000534620F00700854618B020B5FFF73EFF82
:10033000BDE820404FF000064FF000074FF00008E6
:100340004FF0000BAC46ACE8C009ACE8C009ACE823
:10035000C009ACE8C00921F007018D46704710B50F
:100360000446AFF300802046BDE81040FFF709BF08
:10037000004870471000002001491820ABBEFEE77E
:10038000260002007047000010B540F27404C2F26B
:1003900000042046642100F00FFB204600F07AF9AB
:1003A00040F27001C2F2000108804FF6F07108407F
:1003B000B0F5FA6F40F200404FF00002C4F20200C4
:1003C0004FF0800138BF012200F08AFC204600F087
:1003D00065F92046BDE8104000F070BBB0B582B0B2
:1003E00004460020019021680A68520651D48868AA
:1003F00040F00100886040F20800C2F2000000688E
:100400004DF68361C4F21B31A0FB0101880C00EBA7
:10041000400001900198A0B1019801380190019825
:1004200078B1019801380190019850B101980138D4
:100430000190019828B10198013801900198002895
:10044000EAD100F053FC2168096849061CD405462E
:1004500003E000BF006840061AD400F047FC411BCF
:1004600020680329F6D301684906F3D4E06C40F014
:100470001000E064206D40F001002065002084F849
:100480004800012002B0B0BD002002B0B0BD00BFE6
:10049000002002B0B0BD0000FEE700007047000081
:1004A0007047000010B581B00022009290F84820FB
:1004B000012A03D10221084601B010BD4B68012278
:1004C000062B80F8482015D8D0F800E003EB830312
:1004D0005A1F1F23DEF840C003FA02F40B682CEA0F
:1004E000040403FA02F22243CEF84020092B48D834
:1004F0007FE000BF0C2B15D8D0F800E003EB83039E
:10050000A3F123041F23DEF83CC003FA04F20B68B6
:100510002CEA020203FA04F42243CEF83C20092B11
:100520002FD866E0122B15D8D0F800E003EB830338
:10053000A3F141041F23DEF838C003FA04F20B686C
:100540002CEA020203FA04F42243CEF83820092BE5
:1005500017D84EE0D0F800E0182B03EB830337D810
:10056000A3F15F041F23DEF834C003FA04F20B6822
:100570002CEA020203FA04F42243CEF83420092BB9
:1005800037D9132B0ED803EB4304DEF810C01E3C02
:1005900007228968A2402CEA0202A1401143CEF84A
:1005A000101033E01A2B0FD803EB4304DEF80CC015
:1005B0003C3C07228968A2402CEA0202A140114378
:1005C000CEF80C1022E000BF00BF0B681EE000BF99
:1005D000A3F17D041F23DEF830C003FA04F20B6898
:1005E0002CEA020203FA04F42243CEF83020092B4D
:1005F000C7D8DEF814C003EB430407228968A24081
:100600002CEA0202A1401143CEF8141023F001019C
:10061000102934D142F20471C4F201010A681202B5
:100620002DD40A68102B42F400020A6027D140F250
:100630000801C2F2000109684DF68362C4F21B3260
:10064000A1FB0212910C01EB81014900009100997C
:10065000A9B100BF009901390091009979B10099C1
:1006600001390091009951B1009901390091009927
:1006700029B100990139009100990029EAD100219E
:1006800080F84810084601B010BD00007047000017
:10069000704700000068806D7047000070B5044628
:1006A000006805684668B10618D515F0020115D036
:1006B000E16CC90603D4E16C41F40071E164816826
:1006C00011F0405F03D194F82410002962D0204635
:1006D000FFF7DCFF20686FF012010160310614D5CE
:1006E00015F0040111D0E16CC90603D4E16C41F4AA
:1006F0000051E164816811F4401F29D02046FFF7C2
:10070000CFFE20686FF00C01016071060DD515F069
:1007100001010AD0E06C40F48030E064204600F033
:1007200011F920686FF00101016071010FD515F01A
:10073000200108BF70BD216D6FF0200541F002015E
:10074000216505602046FFF7A3FF2068056070BDA6
:10075000416C11F4401F02D081684905CED4416834
:100760004905CBD4816811F0405FC7D194F82410BB
:100770000029C3D1416821F080014160E06C20F480
:100780008050E064E06CC005B8D4E06C40F001003B
:10079000E064B3E7016B11F0F87F02D0816849058E
:1007A00095D4416821F020014160E06C20F4807014
:1007B000E064E06CC0043FF58AAFE06C40F00100FB
:1007C000E06484E7F0B581B0002868D006460446AE
:1007D00056F84C0F00284BD03068C0065FD4E06C50
:1007E00041F202118843023042F2047CE064C4F218
:1007F000010CDCF80010626821F44031E3686069A4
:100800001143256ACCF80010184394F83C3094F852
:1008100024702843616B40EA4320102940EA4700D6
:1008200002D0A36B1943084321680B685B0649D4C7
:10083000D4F808C02569D4E906E3012D43EA0C0386
:1008400043F4807208BF1346B5F5807F94F82C50AE
:1008500008BF1346012D40EA0E002BD117B3E26CFE
:1008600042F02002E264226D42F00102226521E0A2
:100870000020206584F8480043F62000C4F20200FE
:10088000016841F001010160006800F00100009082
:100890000098204600F058F83068C0069FD5012027
:1008A00001B0F0BD226B4EF60007CFF6FF7707EBE5
:1008B000423213434A6841F2FF67CFF6FC473A40A1
:1008C0001A434A608A684FF28D13CCF2FF031A4034
:1008D00002438A602269B2F5807F01D0012A0BD1E0
:1008E0000A6BA36A0027CFF6F07722F0F87207EBC5
:1008F00003531A4303E000BF0A6B22F0F8720A6345
:1009000089684FF6FE72CBF680721140814209D1A0
:1009100000202065E16C21F0030141F0010131600C
:1009200001B0F0BDE06C40F0100020F00200E06487
:1009300054F8501F0120264641F00101316001B0FA
:10094000F0BD00007047000080B586B042F2004163
:100950000068C4F20101002288420592049201D08D
:1009600006B080BD43F61C00C4F20200436843F4A5
:1009700000734360436803F400730093009B0368B3
:1009800043F001030360006800F00100009000984C
:10099000022001900320CDE9020201F55C4001A98B
:1009A00000F0CCF812200021002200F023FA1220DF
:1009B00000F00CFA06B080BD70B5044600680D4624
:1009C0008268520544BF80685FEAC05038D400F0A6
:1009D0008DF921680A68920749D40646681C3CD004
:1009E000DDB90868800721D5086880073FD408680A
:1009F00080071BD50868800739D40868800715D59B
:100A00000868800733D4086880070FD50868800716
:100A1000E7D52CE00868800729D400F067F9801B2F
:100A20002168A842F6D908688007F3D4E06C40F04A
:100A30000400E064002084F84800032070BD00BF7B
:100A4000E06C40F02000E064002084F848000120C1
:100A500070BD00BF0868800709D40868800706D405
:100A6000086880075CBF08685FEA8070F2D5A069FB
:100A7000002804BF6FF012000860E06C40F40070C2
:100A8000E064886810F0405F02D194F8240008B157
:100A9000002070BD086B10F0F87F02D08868400518
:100AA000F6D4E06C20F48070E064E06CC004EFD415
:100AB000E06C40F00100E064002070BD10B5044619
:100AC00090F84800012804BF022010BD012084F8DE
:100AD00048002046FFF782FC00B110BD2168E06CA1
:100AE00040F20172904300F58070E0644868400570
:100AF00004D5E06C012262F30D30E064E26C00206A
:100B0000D2044FF0000244BF226D22F0060222659B
:100B10006FF0220284F848000A604A6842F080625E
:100B200042F020024A608A6812F0405F18BF10BD90
:100B3000886840F080408860002010BD2DE9F04FAB
:100B400082B00D68002D00F0C78000F13E4741F2F1
:100B5000000407F1FF77C4F20204052240F2004EC0
:100B60004FEAB726A04208BF0422C4F2010E042EA9
:100B700038BF4FEAB722002401274FF0000C0026AF
:100B8000009209E00D68013635FA06F20CF1040C0A
:100B900004F1020400F0A08007FA06FB15EA0B0836
:100BA000F0D0D1F804A003230AF003056A1EA34085
:100BB000012A6FEA03090FD88268CB6802EA0902AA
:100BC000A3401A4382604268CAF3001322EA0B0270
:100BD000B3401A43426003E0032D01D103251FE017
:100BE000C2688B6802EA0902A3401A43022DC26060
:100BF00016D16FF0030202EA560202440CF01C0503
:100C00000F23D2F820A003FA05FB0B692AEA0B0A8E
:100C1000AB4043EA0A031362D1F804A00AF00305CB
:100C2000026805FA04F302EA09021A431AF4403F83
:100C30000260A7D043F62003C4F202031A684FF6FD
:100C4000084A42F001021A601A68CFF6FF7A02F0F1
:100C500001020192019A26F00302724452F80A90AE
:100C60000CF00C050F23009FAB4029EA030307FAA1
:100C700005F52B4342F80A30DEF808904B6849EA44
:100C80000805DA0258BF29EA080540F20C49CEF8F7
:100C90000850C4F20109D9F800209F0242EA080571
:100CA00058BF22EA0805C9F80050DEF804209F0367
:100CB00042EA080558BF22EA0805CEF80450DEF8DB
:100CC0000020012742EA0805DB0358BF22EA080595
:100CD000CEF8005056E700BF02B0BDE8F08F00002C
:100CE000002A08BF090481617047000040F2C80073
:100CF000C2F200000068704740F2000040F2C801F4
:100D0000C2F20000C2F2000140680A6810440860A4
:100D10007047000080B5032000F098F80F2000F025
:100D200009F800281CBF012080BD00F029F8002030
:100D300080BD000070B540F20006C2F20006716886
:100D4000E1B1044640F20800C2F200004FF47A72AA
:100D50000068B2FBF1F1B0FBF1F000F059FC0F2C90
:100D60004FF0010508D838B94FF0FF302146002276
:100D7000002500F03FF83460284670BD012070BDAA
:100D800083B043F62400C4F20200016841F0004140
:100D90000160016801F000410291029950F8041CC1
:100DA00041F0010140F8041C50F8041C01F001015D
:100DB00001910199016841F080510160006800F0E3
:100DC00080500090009803B070470000002848BF92
:100DD0007047C1B200F01F00012202FA00F04EF28B
:100DE0000012CEF2000242EAD10121F003010860B4
:100DF0007047000010B54EF60C5CCEF2000CDCF82B
:100E00000030C3F3022E8EF00704042C28BF042404
:100E1000BEF103034FF0FF3E0EFA04F438BF002387
:100E2000A14399400EFA03F39A43114300F00F02D5
:100E300000F160430901043A03F564436244002869
:100E400048BF02F10C03197010BD00004EF60C51A2
:100E5000CEF200010A684FF6FF031A4060F30A223F
:100E600042F0806040F0FD70086070472DE9F0416D
:100E7000002800F0A18043F60807C4F202070446E8
:100E8000D7F8F8030D4600F00100884215D2012D75
:100E900005D1D7F8F80340F00400C7F8F803D7F8F5
:100EA000F80320F001002843C7F8F803D7F8F80347
:100EB00000F00100A84240F07F802068810705D53E
:100EC0003968A26821F0F00111433960C00737D1B9
:100ED000D7F8F80300F00100A84209D9D7F8F803C1
:100EE00020F00100C7F8F803D7F8F803C00763D172
:100EF0002068410705D53968E26821F4E0611143B3
:100F00003960000706D53868216920F4605040EA4E
:100F1000C10038603968C1F3810242F20040C0F27A
:100F2000F400DFE802F003A41D2300BF57F8040C0F
:100F30004FF48031C0F3423001FA00F097E000BF77
:100F40006068012824D003282AD0022830D157F81D
:100F5000081C89035CBF0120BDE8F08130E000BFC0
:100F600043F20060C0F26E1081E000BF41F28A736C
:100F7000C1F38342C0F600039B5C3A68C1F3815120
:100F8000D20301F1010269D45843B0FBF2F06EE0E4
:100F900057F8081C89075CBF0120BDE8F0810FE00D
:100FA00057F8081C89015CBF0120BDE8F08107E00B
:100FB00057F8081C890503D40120BDE8F08100BF63
:100FC000396821F0030108433860FFF78FFE61683C
:100FD0000646032941F288382BD0022937D001294F
:100FE00010D100BF386800F00C0004283FF470AF47
:100FF000FFF77CFE801B40454FF00300F2D9BDE8AF
:10100000F08100BF386810F00C0F3FF461AFFFF7BC
:101010006DFE801B40454FF0030088BFBDE8F081A6
:10102000F0E700BFFFF762FE801B40454FF0030072
:10103000E5D8386800F00C000C28F3D148E700BF71
:10104000FFF754FE801B40454FF00300D7D83868A7
:1010500000F00C000828F3D13AE700BF43F200602B
:10106000C0F26E10A3FB00010023FFF7B1F839684E
:1010700041F27A72C1F30311C0F60002515C40F2F2
:10108000080220FA01F140F20000C2F200000068FC
:10109000C2F200021160BDE8F041FFF74BBE000054
:1010A0002DE9F04383B0002800F0AE8243F600063D
:1010B0000446C4F20206B068B168227800F00C0958
:1010C000D00701F4803710D0B9F1080F06D0B9F17C
:1010D0000C0F40F0E580002F00F0E28030688003C4
:1010E00003D56068002800F08F82207880072FD514
:1010F000B9F1040F1ED0B9F10C0F08BF002F19D0A1
:10110000E068002800F04C810020C4F24720012153
:101110000160FFF7EBFD05463068800711D4FFF74B
:10112000E5FD401B02284FF00300F5D903B0BDE8F0
:10113000F08300BF3068800703D5E068012840F0E5
:1011400063827068216920F4F85040EA01207060E1
:101150002078C00626D4207800073DD420784007A8
:1011600050D4656ACDB1B9F10C0F40F0D580012D96
:1011700000F04A82B068A16A00F480328A4240F0EE
:101180004382E16A00F470128A4240F03D82216B92
:1011900000F44000884240F03782002003B0BDE8F0
:1011A000F08300BFB9F1000F66D0A069002800F0FD
:1011B0009F800020C4F2472001210162FFF796FDC5
:1011C000054600BF3068800500F1C880FFF78EFD3E
:1011D000401B0228F6D927E16069002872D0002060
:1011E000C4F247200121C0F88016FFF77FFD0546B5
:1011F000706B8007B2D4FFF779FD401B0228F7D946
:1012000012E100BF706A10F0805808D1706A40F097
:1012100080507062706A00F080500090009847F231
:101220000007C4F200073868C00513D4386840F4DA
:1012300080703860FFF75AFD054600BF3868C0056A
:1012400008D4FFF753FD401B64284FF00300F5D985
:101250006CE700BFA068002800F0B680052800F009
:10126000CD80012800F0CE80706B20F48070706318
:10127000706B20F48060C8E03068800503D5A069F9
:10128000002800F0C181206A716801F46041884241
:1012900072D9B16811F0F00F00F0048100215BE118
:1012A0006068002800F0CE80052800F0E380012867
:1012B00000F0E480306820F480303060306820F442
:1012C0008020DEE00020C4F247200021C0F8801614
:1012D000FFF70CFD054600BF706B80077FF53EAF42
:1012E000FFF704FD401B02284FF00300F4D91DE76F
:1012F0000020C4F2472000210162FFF7F7FC0546F9
:10130000306880057FF527AFFFF7F0FC401B02280F
:101310004FF00300F4D909E70027C4F24727002063
:101320003866FFF7E3FC022D05460BD130688001DB
:1013300040F1CE80FFF7DAFC401B02284FF003009B
:10134000F4D9F3E6306880017FF527AFFFF7CEFCD4
:10135000401B02284FF00300F4D9E7E67068D4E997
:10136000072120F4604008437060706820F07F40DF
:1013700040EA02607060EEE6716821F4604101436A
:1013800071607168E26921F07F4141EA0261716038
:10139000B16811F0F00F00F0B780002108E100BF44
:1013A0000020C4F2472000210160FFF79FFC0546A2
:1013B000306880077FF5CCAEFFF798FC401B022811
:1013C0004FF00300F4D9B1E6706B20F480707063C5
:1013D000706B20F480607063FFF788FC054641F273
:1013E000883700BF706B800522D5FFF77FFC401B5C
:1013F000B8424FF00300F5D998E600BF706B40F497
:1014000080607063706B40F480707063FFF76EFCF7
:10141000054641F2883700BF706B800508D4FFF79E
:1014200065FC401BB842F7D9032003B0BDE8F08348
:10143000B8F1000F7FF495AE706A20F080507062B2
:101440008FE600BF306820F480303060306820F4D0
:1014500080203060FFF74AFC054600BF30688003FB
:101460007FF543AEFFF742FC401B64284FF00300BA
:10147000F4D95BE6306840F480203060306840F496
:1014800080303060FFF732FC054600BF30688003D3
:101490003FF52BAEFFF72AFC401B64284FF00300FA
:1014A000F4D943E6716AC90047F20001C4F20001B1
:1014B00040D4726A42F080527262726A02F08052C4
:1014C0000192019A0A68716A21F08051716232E0DA
:1014D000B06804F128030ECB20F47D0008431043CC
:1014E0001843B06001203866FFF700FC044600BFD7
:1014F000306880013FF551AEFFF7F8FB001B022872
:101500004FF00300F4D911E6716AC90047F20001F7
:10151000C4F200013AD4726A42F080527262726A76
:1015200002F080520292029A0A68716A21F0805198
:1015300071622CE00A68B0F5404F4FF000010BD10A
:1015400002F4C052B2F5C05F06D1D6F8001441F0E3
:101550000401C6F800140121D6F8002422F001028B
:101560000A44C6F80024D6F8002402F001028A4298
:101570004AD1716821F46041014371607168E26988
:1015800021F07F4141EA026171601EE00A68B0F516
:10159000404F4FF000010BD102F4C052B2F5C05FD2
:1015A00006D1D6F8001441F00401C6F80014012158
:1015B000D6F8002422F001020A44C6F80024D6F826
:1015C000002402F001028A421ED1B16841F27A720F
:1015D000C1F30311C0F60002400B515C4FF480329E
:1015E00002FA00F020FA01F140F20000C2F200001D
:1015F00040F208020068C2F200021160FFF79AFB95
:1016000000287FF493ADA6E5012003B0BDE8F08388
:10161000411E0020B0EB116F1CBF012070474EF23D
:101620001002CEF2000251604EF62351CEF20001BC
:10163000F0230B700721906011607047FEE70000F7
:10164000FEE70000FEE70000704700007047000062
:10165000FFF752BB70470000FEE7000092B047F270
:101660000005C4F20005FFF755FB05AC201D302135
:10167000FEF726FE2868012666F3CC2028600220AB
:101680000590102009900027204608960E97FFF736
:1016900007FD28B1EFF3108072B600BFFEE700BF70
:1016A0000F208DE8C10068460021CDE90377FFF7E0
:1016B000DDFB28B1EFF3108072B600BFFEE700BF7C
:1016C000002643F61C000996C4F20200016805F5E5
:1016D000CA3441F0010101600168002201F00101FA
:1016E000009100990168802741F0020101600068C3
:1016F000802100F00200009000982046FFF7F0FAE9
:101700000597012705A92046CDE906760896FFF73B
:1017100015FA40F2740405F53440C2F2000420606A
:10172000201D2121FEF7CCFD1020C4E90D06204626
:10173000A76284F82C6084F83C60FFF743F828B176
:10174000EFF3108072B600BFFEE700BF40F27400F6
:10175000C2F2000005A9CDE905770796FEF7A2FEC3
:1017600020B1EFF3108072B6FEE700BF40F27400C4
:10177000C2F20000FFF7A2F9FEE70000000000003F
:1017800000000102030406070809030406080C1000
:1017900018203000B81700080000002010000000DA
:1017A00030010008C817000810000020C006000023
:1017B0004C010008000000001000000001000000C3
:0817C00068FF1F00000000009B
:04000005080000F5FA
:00000001FF
