:020000040800F2
:10000000B8060020910100084114000839140008C6
:100010003D14000889030008751400080000000062
:10002000000000000000000000000000491400086B
:100030008D03000800000000451400084D1400085E
:10004000AB010008AB010008AB010008AB010008E0
:10005000AB010008AB01000891030008AB010008E8
:10006000AB010008AB010008AB010008AB010008C0
:10007000AB010008AB010008AB010008AB010008B0
:10008000AB010008AB010008AB010008AB010008A0
:10009000AB010008AB010008AB010008AB01000890
:1000A000AB010008AB010008AB010008AB01000880
:1000B00055140008AB010008AB010008AB010008B3
:1000C000AB010008AB010008AB010008AB01000860
:1000D000AB010008AB010008AB010008AB01000850
:1000E000AB010008AB010008AB010008AB01000840
:1000F000AB01000800F002F800F03AF80AA090E81E
:10010000000C82448344AAF10107DA4501D100F0D2
:100110002FF8AFF2090EBAE80F0013F0010F18BF65
:10012000FB1A43F001031847CC140000EC14000044
:10013000103A24BF78C878C1FAD8520724BF30C813
:1001400030C144BF04680C607047000000230024E5
:1001500000250026103A28BF78C1FBD8520728BFD7
:1001600030C148BF0B6070471FB51FBD10B510BD33
:1001700000F0D0F81146FFF7F7FF01F07DF900F02D
:10018000EEF803B4FFF7F2FF03BC00F0F5F800004F
:100190000948804709480047FEE7FEE7FEE7FEE71B
:1001A000FEE7FEE7FEE7FEE7FEE7FEE70448054957
:1001B000054A064B7047000051140008F50000087E
:1001C000B8000020B8060020B8020020B8020020C5
:1001D00053EA020C00F069802DE9F04B4FF0000665
:1001E000002B1FBFB3FA83F503FA05F424FA05F6D2
:1001F0005E4012BF1643B2FA82F502FA05F4C5F169
:1002000020051EBF22FA05FC44EA0C04203556EAFC
:10021000044C4FEA144418BF641C4FF000084FF020
:100220000009904271EB030C39D3002919BFB1FAD0
:1002300081F701FA07F6B0FA80F700FA07F6C7F17E
:1002400020071EBF20FA07FC46EA0C062037B6FB43
:10025000F4FCA7EB0507103F07F01F0BCBF12006BE
:100260002CFA06F60CFA0BFB44BFB3460026202FEF
:10027000A4BF5E464FF0000B5BEA060C08BF4FF0D0
:10028000010B19EB0B0948EB0608ABFB027C06FBE4
:1002900002CC0BFB03CCC01B71EB0C01C1E70B467E
:1002A000024641464846BDE8F08B13B5084318BFE7
:1002B0004FF0FF300146AFF30080BDE81C407047AF
:1002C0004FF0000200B5134694469646203922BFEF
:1002D000A0E80C50A0E80C50B1F12001BFF4F7AF3A
:1002E000090728BFA0E80C5048BF0CC05DF804EB1C
:1002F000890028BF40F8042B08BF704748BF20F88A
:10030000022B11F0804F18BF00F8012B7047704787
:1003100070477047754600F02BF8AE4605006946F9
:10032000534620F00700854618B020B5FFF73EFF82
:10033000BDE820404FF000064FF000074FF00008E6
:100340004FF0000BAC46ACE8C009ACE8C009ACE823
:10035000C009ACE8C00921F007018D46704710B50F
:100360000446AFF300802046BDE81040FFF709BF08
:10037000004870471000002001491820ABBEFEE77E
:100380002600020070470000FEE7000070470000F2
:10039000B0B540F20C04C2F200042078012815D157
:1003A00040F27000C2F2000000F0BAFE40F20040DD
:1003B000C4F2020080210022002500F0FDF8012097
:1003C0002570BDE8B04000F011B800BF40F27000E9
:1003D000C2F2000000F06CFE012501202570BDE88E
:1003E000B04000F003B800007047000040F2144134
:1003F000C4F201010A68024214BF08607047FFF7A7
:10040000F3BF00002DE9F04F82B00D68002D00F021
:10041000C78000F13E4741F2000407F1FF77C4F2C4
:100420000204052240F2004E4FEAB726A04208BF60
:100430000422C4F2010E042E38BF4FEAB722002472
:1004400001274FF0000C0026009209E00D680136EC
:1004500035FA06F20CF1040C04F1020400F0A0805D
:1004600007FA06FB15EA0B08F0D0D1F804A0032325
:100470000AF003056A1EA340012A6FEA03090FD898
:100480008268CB6802EA0902A3401A43826042688C
:10049000CAF3001322EA0B02B3401A43426003E09E
:1004A000032D01D103251FE0C2688B6802EA09020F
:1004B000A3401A43022DC26016D16FF0030202EA74
:1004C000560202440CF01C050F23D2F820A003FAB8
:1004D00005FB0B692AEA0B0AAB4043EA0A031362E5
:1004E000D1F804A00AF00305026805FA04F302EA51
:1004F00009021A431AF4403F0260A7D043F62003D2
:10050000C4F202031A684FF6084A42F001021A6068
:100510001A68CFF6FF7A02F001020192019A26F0E2
:100520000302724452F80A900CF00C050F23009F4E
:10053000AB4029EA030307FA05F52B4342F80A30DA
:10054000DEF808904B6849EA0805DA0258BF29EA44
:10055000080540F20C49CEF80850C4F20109D9F858
:1005600000209F0242EA080558BF22EA0805C9F8A0
:100570000050DEF804209F0342EA080558BF22EA33
:100580000805CEF80450DEF80020012742EA0805ED
:10059000DB0358BF22EA0805CEF8005056E700BF3B
:1005A00002B0BDE8F08F0000426902EA0103914306
:1005B00041EA034181617047002A08BF0904816153
:1005C0007047000040F2B000C2F2000000687047BF
:1005D00040F2000040F2B001C2F20000C2F200019D
:1005E00040680A68104408607047000080B5032026
:1005F00000F098F80F2000F009F800281CBF012037
:1006000080BD00F029F8002080BD000070B540F2E8
:100610000006C2F200067168E1B1044640F208002B
:10062000C2F200004FF47A720068B2FBF1F1B0FB45
:10063000F1F000F059FC0F2C4FF0010508D838B943
:100640004FF0FF3021460022002500F03FF83460D3
:10065000284670BD012070BD83B043F62400C4F26B
:100660000200016841F000410160016801F00041B1
:100670000291029950F8041C41F0010140F8041C59
:1006800050F8041C01F0010101910199016841F049
:1006900080510160006800F080500090009803B025
:1006A00070470000002848BF7047C1B200F01F002B
:1006B000012202FA00F04EF20012CEF2000242EAEB
:1006C000D10121F0030108607047000010B54EF61B
:1006D0000C5CCEF2000CDCF80030C3F3022E8EF07E
:1006E0000704042C28BF0424BEF103034FF0FF3E8F
:1006F0000EFA04F438BF0023A14399400EFA03F325
:100700009A43114300F00F0200F160430901043ADB
:1007100003F564436244002848BF02F10C031970DA
:1007200010BD00004EF60C51CEF200010A684FF6E3
:10073000FF031A4060F30A2242F0806040F0FD702F
:10074000086070472DE9F041002800F0A18043F6D1
:100750000807C4F202070446D7F8F8030D4600F074
:100760000100884215D2012D05D1D7F8F80340F0D9
:100770000400C7F8F803D7F8F80320F00100284375
:10078000C7F8F803D7F8F80300F00100A84240F0DA
:100790007F802068810705D53968A26821F0F001C3
:1007A00011433960C00737D1D7F8F80300F00100D2
:1007B000A84209D9D7F8F80320F00100C7F8F803D8
:1007C000D7F8F803C00763D12068410705D5396819
:1007D000E26821F4E06111433960000706D538680A
:1007E000216920F4605040EAC10038603968C1F3E3
:1007F000810242F20040C0F2F400DFE802F003A4FC
:100800001D2300BF57F8040C4FF48031C0F3423071
:1008100001FA00F097E000BF6068012824D00328A7
:100820002AD0022830D157F8081C89035CBF012068
:10083000BDE8F08130E000BF43F20060C0F26E100E
:1008400081E000BF41F2EA53C1F38342C0F60003E6
:100850009B5C3A68C1F38151D20301F1010269D472
:100860005843B0FBF2F06EE057F8081C89075CBFF4
:100870000120BDE8F0810FE057F8081C89015CBF3A
:100880000120BDE8F08107E057F8081C890503D472
:100890000120BDE8F08100BF396821F00301084361
:1008A0003860FFF78FFE61680646032941F28838F9
:1008B0002BD0022937D0012910D100BF386800F0B1
:1008C0000C0004283FF470AFFFF77CFE801B40450E
:1008D0004FF00300F2D9BDE8F08100BF386810F096
:1008E0000C0F3FF461AFFFF76DFE801B40454FF0EA
:1008F000030088BFBDE8F081F0E700BFFFF762FEAC
:10090000801B40454FF00300E5D8386800F00C002C
:100910000C28F3D148E700BFFFF754FE801B404589
:100920004FF00300D7D8386800F00C000828F3D146
:100930003AE700BF43F20060C0F26E10A3FB000173
:100940000023FFF745FC396841F2DA52C1F3031185
:10095000C0F60002515C40F2080220FA01F140F2B8
:100960000000C2F200000068C2F200021160BDE89F
:10097000F041FFF74BBE00002DE9F04383B00028A3
:1009800000F0AE8243F600060446C4F20206B068E8
:10099000B168227800F00C09D00701F4803710D03C
:1009A000B9F1080F06D0B9F10C0F40F0E580002F27
:1009B00000F0E2803068800303D56068002800F012
:1009C0008F82207880072FD5B9F1040F1ED0B9F19E
:1009D0000C0F08BF002F19D0E068002800F04C81F0
:1009E0000020C4F2472001210160FFF7EBFD05461E
:1009F0003068800711D4FFF7E5FD401B02284FF057
:100A00000300F5D903B0BDE8F08300BF306880076C
:100A100003D5E068012840F063827068216920F402
:100A2000F85040EA012070602078C00626D4207873
:100A300000073DD42078400750D4656ACDB1B9F1A4
:100A40000C0F40F0D580012D00F04A82B068A16AF9
:100A500000F480328A4240F04382E16A00F470126E
:100A60008A4240F03D82216B00F44000884240F011
:100A70003782002003B0BDE8F08300BFB9F1000F5A
:100A800066D0A069002800F09F800020C4F24720B3
:100A900001210162FFF796FD054600BF3068800521
:100AA00000F1C880FFF78EFD401B0228F6D927E130
:100AB0006069002872D00020C4F247200121C0F8EC
:100AC0008016FFF77FFD0546706B8007B2D4FFF7F5
:100AD00079FD401B0228F7D912E100BF706A10F0BF
:100AE000805808D1706A40F080507062706A00F0DF
:100AF00080500090009847F20007C4F20007386861
:100B0000C00513D4386840F480703860FFF75AFD90
:100B1000054600BF3868C00508D4FFF753FD401BE9
:100B200064284FF00300F5D96CE700BFA0680028E7
:100B300000F0B680052800F0CD80012800F0CE80BE
:100B4000706B20F480707063706B20F48060C8E07C
:100B50003068800503D5A069002800F0C181206AB3
:100B6000716801F46041884272D9B16811F0F00FE8
:100B700000F0048100215BE16068002800F0CE8075
:100B8000052800F0E380012800F0E480306820F4BC
:100B900080303060306820F48020DEE00020C4F235
:100BA00047200021C0F88016FFF70CFD054600BF66
:100BB000706B80077FF53EAFFFF704FD401B0228F6
:100BC0004FF00300F4D91DE70020C4F247200021B4
:100BD0000162FFF7F7FC0546306880057FF527AF17
:100BE000FFF7F0FC401B02284FF00300F4D909E79F
:100BF0000027C4F2472700203866FFF7E3FC022DE8
:100C000005460BD13068800140F1CE80FFF7DAFC59
:100C1000401B02284FF00300F4D9F3E6306880014E
:100C20007FF527AFFFF7CEFC401B02284FF00300F3
:100C3000F4D9E7E67068D4E9072120F4604008435E
:100C40007060706820F07F4040EA02607060EEE6FD
:100C5000716821F46041014371607168E26921F0BB
:100C60007F4141EA02617160B16811F0F00F00F05C
:100C7000B780002108E100BF0020C4F24720002116
:100C80000160FFF79FFC0546306880077FF5CCAE1A
:100C9000FFF798FC401B02284FF00300F4D9B1E69F
:100CA000706B20F480707063706B20F480607063F0
:100CB000FFF788FC054641F2883700BF706B80055E
:100CC00022D5FFF77FFC401BB8424FF00300F5D957
:100CD00098E600BF706B40F480607063706B40F406
:100CE00080707063FFF76EFC054641F2883700BFE5
:100CF000706B800508D4FFF765FC401BB842F7D93C
:100D0000032003B0BDE8F083B8F1000F7FF495AE87
:100D1000706A20F0805070628FE600BF306820F467
:100D200080303060306820F480203060FFF74AFC6B
:100D3000054600BF306880037FF543AEFFF742FCF5
:100D4000401B64284FF00300F4D95BE6306840F4A0
:100D500080203060306840F480303060FFF732FC33
:100D6000054600BF306880033FF52BAEFFF72AFC35
:100D7000401B64284FF00300F4D943E6716AC900B0
:100D800047F20001C4F2000140D4726A42F080527E
:100D90007262726A02F080520192019A0A68716A64
:100DA00021F08051716232E0B06804F128030ECB6B
:100DB00020F47D00084310431843B06001203866DA
:100DC000FFF700FC044600BF306880013FF551AEDC
:100DD000FFF7F8FB001B02284FF00300F4D911E6DF
:100DE000716AC90047F20001C4F200013AD4726A84
:100DF00042F080527262726A02F080520292029A4B
:100E00000A68716A21F0805171622CE00A68B0F5BD
:100E1000404F4FF000010BD102F4C052B2F5C05F59
:100E200006D1D6F8001441F00401C6F800140121DF
:100E3000D6F8002422F001020A44C6F80024D6F8AD
:100E4000002402F001028A424AD1716821F4604113
:100E5000014371607168E26921F07F4141EA0261FA
:100E600071601EE00A68B0F5404F4FF000010BD1F1
:100E700002F4C052B2F5C05F06D1D6F8001441F0BA
:100E80000401C6F800140121D6F8002422F0010262
:100E90000A44C6F80024D6F8002402F001028A426F
:100EA0001ED1B16841F2DA52C1F30311C0F600025B
:100EB000400B515C4FF4803202FA00F020FA01F14D
:100EC00040F20000C2F2000040F208020068C2F2E4
:100ED00000021160FFF79AFB00287FF493ADA6E5AE
:100EE000012003B0BDE8F083411E0020B0EB116F7C
:100EF0001CBF012070474EF21002CEF2000251607A
:100F00004EF62351CEF20001F0230B7007219060C2
:100F10001160704710B590F83820012A4FF0020296
:100F200033D080F839200268D2F804E0D2F808C043
:100F30000C682EF07003234340F2FF74C4F20004E7
:100F4000A24253600ADCB2F1804F13D040F200435A
:100F5000C4F200039A420DD011E000BF40F6000336
:100F6000C4F201039A4205D040F60003C4F2000324
:100F70009A4204D149682CF0800319439160012101
:100F8000002280F8391080F83820104610BD00008B
:100F9000002804BF0120704710B5044690F83900BE
:100FA00028B9002084F83800204600F061F80220BB
:100FB00084F8390020680168B0F1804F0BD040F60A
:100FC0000002C4F20002904205D040F20042C4F296
:100FD0000002904203D1A26821F07001114340F257
:100FE000FF72C4F20102904210DCB0F1804F1FD0BA
:100FF00040F20042C4F20002904219D040F60002D2
:10100000C4F20002904213D016E000BF40F6000286
:10101000C4F2010290420BD041F20002C4F201027C
:10102000904205D040F60042C4F20102904203D142
:10103000226921F440711143636921F08001D4F8E1
:1010400004C0E268194301600121C262C0F828C0EF
:101050004161002084F83E1084F83A1084F83B1077
:1010600084F83C1084F83D1084F8391010BD00005D
:1010700080B582B00068B0F1804F1CBF02B080BD67
:1010800043F62400C4F202000168002241F001018D
:1010900001600068002100F00100019001981C200F
:1010A000FFF714FB1C2002B0BDE88040FFF7FABA3E
:1010B00090F8391001291CBF01207047022180F8E7
:1010C0003910006840F2FF72C168C4F20002904219
:1010D00041F00101C16009DCB0F1804F12D040F253
:1010E0000041C4F2000188420CD012E040F6000139
:1010F000C4F20101884205D040F60001C4F20001AB
:10110000884206D1816801F00701062904BF00204A
:101110007047016841F00101016000207047000044
:101120000146006841F21113C26822F00102C26058
:10113000026A1A4204D00122002081F83920704747
:10114000026822F0010202600122002081F83920A9
:101150007047000080B590F83820012A4FF0020255
:1011600000F0C28080F83920D0F800C04FF67772C6
:10117000DCF8083023EA0202CCF808200B684F2B79
:1011800028DC1F2B44DD202B45D0302B43D0402BB7
:1011900040F0AC80D1F804E0C968DCF82030DCF81D
:1011A000202022F00102CCF82020DCF8182022F0C8
:1011B000F00242EA011123F00A0242EA0E02CCF8E0
:1011C0001810CCF82020DCF8081041F0470121F07D
:1011D000300180E06F2B27DDB3F5005F48D0B3F519
:1011E000805F7AD0702B40F08180D1E901E3C9683B
:1011F000DCF8082043EA0E0322F47F4243EA01218F
:101200001143CCF80810DCF8081041F0770162E0D7
:101210000BB1102B6AD1DCF8081021F070011943D2
:1012200041F0070157E000BF502B35D0602B5DD156
:10123000D1F804E0C968DCF82030DCF8202022F086
:101240001002CCF82020DCF8182022F4704242EA88
:10125000013123F0A00242EA0E12CCF81810CCF8AB
:101260002020DCF8081041F0670121F0100132E085
:10127000D1E901E3C968DCF8082043EA0E0322F44F
:101280007F4243EA01211143CCF80810DCF8081032
:1012900041F480411FE000BFD1F804E0C968DCF8E8
:1012A0002030DCF8202022F00102CCF82020DCF8ED
:1012B000182022F0F00242EA011123F00A0242EA69
:1012C0000E02CCF81810CCF82020DCF8081041F001
:1012D000570121F02001CCF808100022012180F8EC
:1012E0003910002180F83810104680BD0122F5E742
:1012F0007047000010B5016804460869800744BFC4
:10130000C8685FEA80702BD40869400744BFC8688A
:101310005FEA407030D40869000744BFC8685FEADC
:10132000007037D40869C00644BFC8685FEAC0606F
:101330003CD40869C0071CBFC8685FEAC07043D1CD
:101340000869400646BFC8685FEA406010BD6FF09C
:10135000400220460A61BDE8104000F06BB800BFB3
:101360006FF002000861012020768869800733D081
:101370002046FFF7BDFF35E06FF004000861022052
:101380002076886910F4407F30D02046FFF7B0FF08
:1013900032E000BF6FF00800086104202076C869C1
:1013A00080072DD02046FFF7A3FF2FE06FF010003D
:1013B000086108202076C86910F4407F2AD02046B2
:1013C000FFF796FF2CE000BF6FF001000861204698
:1013D00000F02EF82168B3E7204600F025F82046FB
:1013E00000F024F82168002020768DE7204600F0E8
:1013F0001BF8204600F01AF82168002020768AE7C2
:10140000204600F011F8204600F010F82168002076
:10141000207687E7204600F007F8204600F006F81F
:1014200021680020207684E77047000070470000A4
:101430007047000070470000FEE70000FEE7000074
:10144000FEE700007047000070470000FFF7C0B8DB
:101450007047000080B540F20040C4F202008021D5
:10146000FFF7A2F840F27000C2F20000BDE8804031
:10147000FFF740BFFEE7000092B047F20005C4F25C
:101480000005FFF7B3F805AC201D3021FEF718FF6B
:101490002868012666F3CC202860022005901020E1
:1014A00009900027204608960E97FFF765FA28B1A5
:1014B000EFF3108072B600BFFEE700BF0F208DE88B
:1014C000C10068460021CDE90377FFF73BF928B159
:1014D000EFF3108072B600BFFEE700BF002643F6B0
:1014E0001C00CDE90866C4F20200016805F5CA34A3
:1014F00041F0010101600168002201F00101009149
:10150000009901684FF0800841F002010160006815
:10151000802100F00200009000982046FFF74CF870
:101520004FF48810CDE9060605F5C83005AD012752
:1015300029460597FEF766FF20462946CDE905872F
:10154000CDE90766FEF75EFF062000210022FFF7C7
:10155000BDF80620FFF7A6F840F27000C2F20000C6
:101560004FF080414FF47A730896CDE90666CDE9D5
:1015700000664FF47A5280E84600C0E903364661BF
:10158000FFF706FD20B1EFF3108072B6FEE700BF53
:101590004FF48050059040F27000C2F2000005A99F
:1015A000FFF7D8FD20B1EFF3108072B6FEE700BF61
:1015B00040F27000C2F200006946FFF7ABFC28B1B0
:1015C000EFF3108072B600BFFEE700BF40F270007C
:1015D000C2F20000FFF76CFDFEE700000000000013
:1015E00000000102030406070809030406080C10A2
:1015F000182030001816000800000020100000001D
:10160000300100082816000810000020A80600007D
:101610004C01000800000000100000000100000064
:0816200068FF1F00010000003B
:04000005080000F5FA
:00000001FF
