:020000040800F2
:100000007806002091010008990E0008910E000862
:10001000950E000889030008AD0E000800000000DE
:10002000000000000000000000000000A10E000819
:100030008D030008000000009D0E0008A50E0008BA
:10004000AB010008AB010008AB010008AB010008E0
:10005000AB010008AB010008AB010008AB010008D0
:10006000AB010008AB010008AB010008AB010008C0
:10007000AB010008AB010008AB010008AB010008B0
:10008000AB010008AB010008AB010008AB010008A0
:10009000AB010008AB010008AB010008AB01000890
:1000A000AB010008AB010008AB010008AB01000880
:1000B000AB010008AB010008AB010008AB01000870
:1000C000AB010008AB010008AB010008AB01000860
:1000D000AB010008AB010008AB010008AB01000850
:1000E000AB010008AB010008AB010008AB01000840
:1000F000AB01000800F002F800F03AF80AA090E81E
:10010000000C82448344AAF10107DA4501D100F0D2
:100110002FF8AFF2090EBAE80F0013F0010F18BF65
:10012000FB1A43F001031847700E0000900E000008
:10013000103A24BF78C878C1FAD8520724BF30C813
:1001400030C144BF04680C607047000000230024E5
:1001500000250026103A28BF78C1FBD8520728BFD7
:1001600030C148BF0B6070471FB51FBD10B510BD33
:1001700000F0D0F81146FFF7F7FF00F099FE00F00D
:10018000EEF803B4FFF7F2FF03BC00F0F5F800004F
:100190000948804709480047FEE7FEE7FEE7FEE71B
:1001A000FEE7FEE7FEE7FEE7FEE7FEE70448054957
:1001B000054A064B70470000A90E0008F50000082C
:1001C00078000020780600207802002078020020C5
:1001D00053EA020C00F069802DE9F04B4FF0000665
:1001E000002B1FBFB3FA83F503FA05F424FA05F6D2
:1001F0005E4012BF1643B2FA82F502FA05F4C5F169
:1002000020051EBF22FA05FC44EA0C04203556EAFC
:10021000044C4FEA144418BF641C4FF000084FF020
:100220000009904271EB030C39D3002919BFB1FAD0
:1002300081F701FA07F6B0FA80F700FA07F6C7F17E
:1002400020071EBF20FA07FC46EA0C062037B6FB43
:10025000F4FCA7EB0507103F07F01F0BCBF12006BE
:100260002CFA06F60CFA0BFB44BFB3460026202FEF
:10027000A4BF5E464FF0000B5BEA060C08BF4FF0D0
:10028000010B19EB0B0948EB0608ABFB027C06FBE4
:1002900002CC0BFB03CCC01B71EB0C01C1E70B467E
:1002A000024641464846BDE8F08B13B5084318BFE7
:1002B0004FF0FF300146AFF30080BDE81C407047AF
:1002C0004FF0000200B5134694469646203922BFEF
:1002D000A0E80C50A0E80C50B1F12001BFF4F7AF3A
:1002E000090728BFA0E80C5048BF0CC05DF804EB1C
:1002F000890028BF40F8042B08BF704748BF20F88A
:10030000022B11F0804F18BF00F8012B7047704787
:1003100070477047754600F02BF8AE4605006946F9
:10032000534620F00700854618B020B5FFF73EFF82
:10033000BDE820404FF000064FF000074FF00008E6
:100340004FF0000BAC46ACE8C009ACE8C009ACE823
:10035000C009ACE8C00921F007018D46704710B50F
:100360000446AFF300802046BDE81040FFF709BF08
:10037000004870471000002001491820ABBEFEE77E
:100380002600020070470000FEE7000070470000F2
:10039000B0B5044600F0E8F8054640F20000C2F2AD
:1003A00000004068611C18BF044400BF00F0DCF886
:1003B000401BA042FAD3B0BD2DE9F04F82B00D68CA
:1003C000002D00F0C78000F13E4741F2000407F124
:1003D000FF77C4F20204052240F2004E4FEAB7262E
:1003E000A04208BF0422C4F2010E042E38BF4FEA17
:1003F000B722002401274FF0000C0026009209E0EC
:100400000D68013635FA06F20CF1040C04F1020411
:1004100000F0A08007FA06FB15EA0B08F0D0D1F82F
:1004200004A003230AF003056A1EA340012A6FEA11
:1004300003090FD88268CB6802EA0902A3401A4375
:1004400082604268CAF3001322EA0B02B3401A43E7
:10045000426003E0032D01D103251FE0C2688B68D1
:1004600002EA0902A3401A43022DC26016D16FF0BE
:10047000030202EA560202440CF01C050F23D2F8D4
:1004800020A003FA05FB0B692AEA0B0AAB4043EAFA
:100490000A031362D1F804A00AF00305026805FA02
:1004A00004F302EA09021A431AF4403F0260A7D09B
:1004B00043F62003C4F202031A684FF6084A42F0DA
:1004C00001021A601A68CFF6FF7A02F00102019267
:1004D000019A26F00302724452F80A900CF00C05BF
:1004E0000F23009FAB4029EA030307FA05F52B43CE
:1004F00042F80A30DEF808904B6849EA0805DA024B
:1005000058BF29EA080540F20C49CEF80850C4F259
:100510000109D9F800209F0242EA080558BF22EAE3
:100520000805C9F80050DEF804209F0342EA0805D8
:1005300058BF22EA0805CEF80450DEF80020012753
:1005400042EA0805DB0358BF22EA0805CEF800504E
:1005500056E700BF02B0BDE8F08F0000002A08BFD8
:10056000090481617047000040F27000C2F200008F
:100570000068704740F2000040F27001C2F20000D3
:10058000C2F2000140680A68104408607047000029
:1005900080B5032000F084F80F2000F009F800284F
:1005A0001CBF012080BD00F029F8002080BD0000A4
:1005B00070B540F20006C2F200067168E1B104466F
:1005C00040F20800C2F200004FF47A720068B2FBF9
:1005D000F1F1B0FBF1F000F045FC0F2C4FF00105FC
:1005E00008D838B94FF0FF3021460022002500F02E
:1005F0002BF83460284670BD012070BD83B043F6EF
:100600002400C4F20200016841F000410160016869
:1006100001F000410291029950F8041C41F00101DF
:1006200040F8041C50F8041C01F0010101910199EB
:10063000016841F080510160006800F08050009036
:10064000009803B07047000010B54EF60C5CCEF277
:10065000000CDCF80030C3F3022E8EF00704042CEB
:1006600028BF0424BEF103034FF0FF3E0EFA04F44A
:1006700038BF0023A14399400EFA03F39A43114374
:1006800000F00F0200F160430901043A03F56443EE
:100690006244002848BF02F10C03197010BD00002D
:1006A0004EF60C51CEF200010A684FF6FF031A40D5
:1006B00060F30A2242F0806040F0FD7008607047ED
:1006C0002DE9F041002800F0A18043F60807C4F2AC
:1006D00002070446D7F8F8030D4600F001008842EF
:1006E00015D2012D05D1D7F8F80340F00400C7F862
:1006F000F803D7F8F80320F001002843C7F8F803FF
:10070000D7F8F80300F00100A84240F07F8020688D
:10071000810705D53968A26821F0F00111433960DD
:10072000C00737D1D7F8F80300F00100A84209D973
:10073000D7F8F80320F00100C7F8F803D7F8F8035A
:10074000C00763D12068410705D53968E26821F404
:10075000E06111433960000706D53868216920F44B
:10076000605040EAC10038603968C1F3810242F24A
:100770000040C0F2F400DFE802F003A41D2300BF34
:1007800057F8040C4FF48031C0F3423001FA00F006
:1007900097E000BF6068012824D003282AD00228EF
:1007A00030D157F8081C89035CBF0120BDE8F081F7
:1007B00030E000BF43F20060C0F26E1081E000BF85
:1007C00040F68E73C1F38342C0F600039B5C3A6827
:1007D000C1F38151D20301F1010269D45843B0FB46
:1007E000F2F06EE057F8081C89075CBF0120BDE8F5
:1007F000F0810FE057F8081C89015CBF0120BDE8BB
:10080000F08107E057F8081C890503D40120BDE8F2
:10081000F08100BF396821F0030108433860FFF719
:10082000A3FE61680646032941F288382BD00229CD
:1008300037D0012910D100BF386800F00C0004281F
:100840003FF470AFFFF790FE801B40454FF0030070
:10085000F2D9BDE8F08100BF386810F00C0F3FF40A
:1008600061AFFFF781FE801B40454FF0030088BF5A
:10087000BDE8F081F0E700BFFFF776FE801B404542
:100880004FF00300E5D8386800F00C000C28F3D1D5
:1008900048E700BFFFF768FE801B40454FF00300AC
:1008A000D7D8386800F00C000828F3D13AE700BF29
:1008B00043F20060C0F26E10A3FB00010023FFF7BB
:1008C00087FC396840F67E72C1F30311C0F600025E
:1008D000515C40F2080220FA01F140F20000C2F23D
:1008E00000000068C2F200021160BDE8F041FFF7AD
:1008F0005FBE00002DE9F04383B0002800F0AE8217
:1009000043F600060446C4F20206B068B1682278D5
:1009100000F00C09D00701F4803710D0B9F1080FAE
:1009200006D0B9F10C0F40F0E580002F00F0E28016
:100930003068800303D56068002800F08F8220783B
:1009400080072FD5B9F1040F1ED0B9F10C0F08BFE5
:10095000002F19D0E068002800F04C810020C4F27C
:10096000472001210160FFF7FFFD05463068800741
:1009700011D4FFF7F9FD401B02284FF00300F5D911
:1009800003B0BDE8F08300BF3068800703D5E0689E
:10099000012840F063827068216920F4F85040EA31
:1009A000012070602078C00626D4207800073DD44E
:1009B0002078400750D4656ACDB1B9F10C0F40F0F2
:1009C000D580012D00F04A82B068A16A00F480321F
:1009D0008A4240F04382E16A00F470128A4240F099
:1009E0003D82216B00F44000884240F037820020B5
:1009F00003B0BDE8F08300BFB9F1000F66D0A06975
:100A0000002800F09F800020C4F2472001210162ED
:100A1000FFF7AAFD054600BF3068800500F1C880D9
:100A2000FFF7A2FD401B0228F6D927E160690028E4
:100A300072D00020C4F247200121C0F88016FFF7D1
:100A400093FD0546706B8007B2D4FFF78DFD401B08
:100A50000228F7D912E100BF706A10F0805808D15F
:100A6000706A40F080507062706A00F080500090B0
:100A7000009847F20007C4F200073868C00513D495
:100A8000386840F480703860FFF76EFD054600BF9F
:100A90003868C00508D4FFF767FD401B64284FF095
:100AA0000300F5D96CE700BFA068002800F0B6800D
:100AB000052800F0CD80012800F0CE80706B20F476
:100AC00080707063706B20F48060C8E030688005CF
:100AD00003D5A069002800F0C181206A716801F483
:100AE0006041884272D9B16811F0F00F00F00481C2
:100AF00000215BE16068002800F0CE80052800F04E
:100B0000E380012800F0E480306820F48030306019
:100B1000306820F48020DEE00020C4F2472000216D
:100B2000C0F88016FFF720FD054600BF706B8007F8
:100B30007FF53EAFFFF718FD401B02284FF0030082
:100B4000F4D91DE70020C4F2472000210162FFF71D
:100B50000BFD0546306880057FF527AFFFF704FDE4
:100B6000401B02284FF00300F4D909E70027C4F224
:100B7000472700203866FFF7F7FC022D05460BD10A
:100B80003068800140F1CE80FFF7EEFC401B022868
:100B90004FF00300F4D9F3E6306880017FF527AF0A
:100BA000FFF7E2FC401B02284FF00300F4D9E7E610
:100BB0007068D4E9072120F46040084370607068D1
:100BC00020F07F4040EA02607060EEE6716821F438
:100BD0006041014371607168E26921F07F4141EA3F
:100BE00002617160B16811F0F00F00F0B780002170
:100BF00008E100BF0020C4F2472000210160FFF798
:100C0000B3FC0546306880077FF5CCAEFFF7ACFC3F
:100C1000401B02284FF00300F4D9B1E6706B20F4BA
:100C200080707063706B20F480607063FFF79CFCD1
:100C3000054641F2883700BF706B800522D5FFF76B
:100C400093FC401BB8424FF00300F5D998E600BF73
:100C5000706B40F480607063706B40F48070706300
:100C6000FFF782FC054641F2883700BF706B8005B4
:100C700008D4FFF779FC401BB842F7D9032003B032
:100C8000BDE8F083B8F1000F7FF495AE706A20F0F4
:100C9000805070628FE600BF306820F48030306092
:100CA000306820F480203060FFF75EFC054600BF0E
:100CB000306880037FF543AEFFF756FC401B642885
:100CC0004FF00300F4D95BE6306840F480203060D8
:100CD000306840F480303060FFF746FC054600BFC6
:100CE000306880033FF52BAEFFF73EFC401B6428C5
:100CF0004FF00300F4D943E6716AC90047F20001DE
:100D0000C4F2000140D4726A42F080527262726A88
:100D100002F080520192019A0A68716A21F08051B2
:100D2000716232E0B06804F128030ECB20F47D003C
:100D3000084310431843B06001203866FFF714FCE5
:100D4000044600BF306880013FF551AEFFF70CFC50
:100D5000001B02284FF00300F4D911E6716AC900A4
:100D600047F20001C4F200013AD4726A42F08052A4
:100D70007262726A02F080520292029A0A68716A82
:100D800021F0805171622CE00A68B0F5404F4FF0BD
:100D900000010BD102F4C052B2F5C05F06D1D6F803
:100DA000001441F00401C6F800140121D6F8002413
:100DB00022F001020A44C6F80024D6F8002402F00A
:100DC00001028A424AD1716821F460410143716095
:100DD0007168E26921F07F4141EA026171601EE0C1
:100DE0000A68B0F5404F4FF000010BD102F4C05239
:100DF000B2F5C05F06D1D6F8001441F00401C6F880
:100E000000140121D6F8002422F001020A44C6F899
:100E10000024D6F8002402F001028A421ED1B168F3
:100E200040F67E72C1F30311C0F60002400B515C24
:100E30004FF4803202FA00F020FA01F140F2000093
:100E4000C2F2000040F208020068C2F20002116023
:100E5000FFF7AEFB00287FF493ADA6E5012003B0B9
:100E6000BDE8F083411E0020B0EB116F1CBF0120D4
:100E700070474EF21002CEF2000251604EF623513E
:100E8000CEF20001F0230B700721906011607047D3
:100E9000FEE70000FEE70000FEE7000070470000EC
:100EA00070470000FFF766BB70470000FEE70000D8
:100EB00092B040F20044C4F20204FFF769FB05ADB2
:100EC000281D3021FFF7FCF946F60040CFF6FE70F2
:100ED0002158012666F3CC212150022005901020D4
:100EE00009900027284608960E97FFF703FD28B1C2
:100EF000EFF3108072B600BFFEE700BF0F208DE851
:100F0000C10068460021CDE90377FFF7D9FB28B17E
:100F1000EFF3108072B600BFFEE700BF002543F676
:100F20001C000995C4F202000168002241F0020190
:100F300001600068802100F00200009000982046C7
:100F40008026FFF70BFB0120CDE9060505A9204609
:100F500005960895FFF730FA204680210122FFF719
:100F6000FDFA40F2DC50FFF713FA20468021002200
:100F7000FFF7F4FA40F2DC50FFF70AFAECE7000062
:100F80000000000000000102030406070809030432
:100F900006080C1018203000B80F000800000020D0
:100FA0001000000030010008C80F000810000020E9
:100FB000680600004C01000810000000010000005D
:080FC00068FF1F0000000000A3
:04000005080000F5FA
:00000001FF
